:100000000C942A000C9447000C9447000C94470071
:100010000C9447000C9447000C9447000C94470044
:100020000C9447000C9447000C9447000C94470034
:100030000C9447000C9447000C943F010C9447002B
:100040000C9447000C9447000C9447000C94470014
:100050000C94470011241FBECFE5D4E0DEBFCDBF16
:1000600010E0A0E6B0E0E2E5F2E102C005900D92FA
:10007000A037B107D9F720E0A0E7B0E001C01D929A
:10008000AC37B207E1F70E9449000C9427090C94A1
:100090000000CF93DF9300D01F92CDB7DEB783E08F
:1000A00089831A8283E08B83CE0101960E948800A7
:1000B0000E947F0182E796E00E942C018FE590E08C
:1000C0002FE530E0F90120812068FC01208380E6E3
:1000D00090E00E94C90560E0CE0101960E94D80020
:1000E00061E081E00E94F505209174003091750077
:1000F000409176005091770060917800709179007E
:1001000080917A0090917B00C9010E942906E3CF7B
:10011000CF93DF9300D0CDB7DEB79A83898387E290
:1001200090E029813A81F90120812295220F220F46
:10013000207CFC01208386E290E026E230E0F90199
:1001400020812068FC01208386E290E026E230E0F6
:10015000F9012081277FFC01208386E290E026E2DE
:1001600030E0F9012081422F29813A81F901218172
:10017000222F30E0220F331F220F331F220F331F95
:10018000242BFC01208386E290E026E230E0F90196
:100190002081422F487F29813A81F9012281242B35
:1001A000FC01208300000F900F90DF91CF91089504
:1001B000CF93DF9300D01F92CDB7DEB79A838983A8
:1001C0006B8387E290E027E230E0F9012081322F53
:1001D000307E2B81232BFC01208386E290E026E2F7
:1001E00030E0F90120812064FC01208389819A811B
:1001F000FC018181882349F5000086E290E0FC0142
:100200008081882F90E080719927892BB1F386E255
:1002100090E026E230E0F90120812061FC0120839A
:1002200084E290E0FC01808191819093730080933F
:1002300072008091700090917100892B31F0809153
:10024000700090917100FC01099500000F900F90D3
:100250000F90DF91CF910895CF93DF9300D0CDB76A
:10026000DEB79A83898389819A8190937100809304
:10027000700000000F900F90DF91CF9108951F92B2
:100280000F9200905F000F9211242F933F934F9392
:100290005F936F937F938F939F93AF93BF93EF93EE
:1002A000FF93CF93DF93CDB7DEB784E290E0FC01FC
:1002B000808191819093730080937200809170008F
:1002C00090917100892B31F08091700090917100B4
:1002D000FC0109950000DF91CF91FF91EF91BF9153
:1002E000AF919F918F917F916F915F914F913F91CE
:1002F0002F910F9000925F000F901F901895CF9351
:10030000DF93CDB7DEB781E390E021E330E0F90180
:1003100020812160FC01208381E390E021E330E033
:10032000F90120812260FC01208381E390E021E338
:1003300030E0F90120812460FC01208387E390E014
:1003400027E330E0F90120812F60FC01208387E35F
:1003500090E027E330E0F9012081206FFC01208349
:1003600088E30E94BD018CE00E94BD0181E00E94F3
:10037000BD010000DF91CF910895CF93DF93CDB7FA
:10038000DEB7E9970FB6F894DEBF0FBECDBF89AFD9
:1003900082E390E022E330E0F90120812E7FFC012E
:1003A000208382E390E022E330E0F90120812D7F79
:1003B000FC01208380E090E0A0E8BFE389839A837A
:1003C000AB83BC8320E030E04AE753E469817A8163
:1003D0008B819C810E947A08DC01CB018FA798ABAE
:1003E000A9ABBAAB20E030E040E85FE36FA578A9A5
:1003F00089A99AA90E94D10688232CF481E090E073
:100400009CAB8BAB3FC020E03FEF4FE757E46FA5BD
:1004100078A989A99AA90E94750818164CF520E0B8
:1004200030E040E251E469817A818B819C810E94B5
:100430007A08DC01CB01BC01CD010E948407DC01FC
:10044000CB019CAB8BAB0FC089E190E09EAB8DAB39
:100450008DA99EA90197F1F79EAB8DAB8BA99CA9A5
:1004600001979CAB8BAB8BA99CA9892B69F714C016
:100470006FA578A989A99AA90E948407DC01CB01FC
:100480009CAB8BAB8BA99CA998AF8FAB8FA998AD78
:100490000197F1F798AF8FAB82E390E022E330E071
:1004A000F90120812460FC01208380E090E0A0E835
:1004B000BFE38D839E83AF83B88720E030E04AE7B7
:1004C00053E46D817E818F8198850E947A08DC01DA
:1004D000CB018DA39EA3AFA3B8A720E030E040E8F6
:1004E0005FE36DA17EA18FA198A50E94D10688230C
:1004F0002CF481E090E09AA789A73FC020E03FEF6D
:100500004FE757E46DA17EA18FA198A50E947508C1
:1005100018164CF520E030E040E251E46D817E8118
:100520008F8198850E947A08DC01CB01BC01CD0146
:100530000E948407DC01CB019AA789A70FC089E13B
:1005400090E09CA78BA78BA59CA50197F1F79CA792
:100550008BA789A59AA501979AA789A789A59AA586
:10056000892B69F714C06DA17EA18FA198A50E9467
:100570008407DC01CB019AA789A789A59AA59EA724
:100580008DA78DA59EA50197F1F79EA78DA788E35E
:1005900090E029ADFC01208380E090E0A0E8BFE37B
:1005A00089879A87AB87BC8720E030E04AE753E42D
:1005B00069857A858B859C850E947A08DC01CB0150
:1005C0008B8F9C8FAD8FBE8F20E030E040E85FE3E3
:1005D0006B8D7C8D8D8D9E8D0E94D10688232CF491
:1005E00081E090E098A38F8F3FC020E03FEF4FE77E
:1005F00057E46B8D7C8D8D8D9E8D0E94750818162D
:100600004CF520E030E040E251E469857A858B8545
:100610009C850E947A08DC01CB01BC01CD010E94BF
:100620008407DC01CB0198A38F8F0FC089E190E094
:100630009AA389A389A19AA10197F1F79AA389A303
:100640008F8D98A1019798A38F8F8F8D98A1892B5B
:1006500069F714C06B8D7C8D8D8D9E8D0E948407F3
:10066000DC01CB0198A38F8F8F8D98A19CA38BA3C6
:100670008BA19CA10197F1F79CA38BA382E390E04F
:1006800022E330E0F90120812B7FFC01208380E010
:1006900090E0A0E8BFE38D879E87AF87B88B20E00E
:1006A00030E04AE753E46D857E858F8598890E9406
:1006B0007A08DC01CB01898B9A8BAB8BBC8B20E059
:1006C00030E040E85FE369897A898B899C890E94E0
:1006D000D10688232CF481E090E09E8B8D8B3FC067
:1006E00020E03FEF4FE757E469897A898B899C893D
:1006F0000E94750818164CF520E030E040E251E405
:100700006D857E858F8598890E947A08DC01CB01F2
:10071000BC01CD010E948407DC01CB019E8B8D8B37
:100720000FC089E190E0988F8F8B8F89988D01970A
:10073000F1F7988F8F8B8D899E8901979E8B8D8B7A
:100740008D899E89892B69F714C069897A898B897B
:100750009C890E948407DC01CB019E8B8D8B8D8947
:100760009E899A8F898F898D9A8D0197F1F79A8F3B
:10077000898F0000E9960FB6F894DEBF0FBECDBF9B
:10078000DF91CF910895CF93DF93CDB7DEB7E9978F
:100790000FB6F894DEBF0FBECDBF89AF82E390E005
:1007A00022E330E0F90120812160FC01208382E313
:1007B00090E022E330E0F90120812D7FFC012083CD
:1007C00080E090E0A0E8BFE389839A83AB83BC8399
:1007D00020E030E04AE753E469817A818B819C8193
:1007E0000E947A08DC01CB018FA798ABA9ABBAAB0A
:1007F00020E030E040E85FE36FA578A989A99AA9D5
:100800000E94D10688232CF481E090E09CAB8BAB56
:100810003FC020E03FEF4FE757E46FA578A989A9D3
:100820009AA90E94750818164CF520E030E040E2C5
:1008300051E469817A818B819C810E947A08DC0174
:10084000CB01BC01CD010E948407DC01CB019CAB34
:100850008BAB0FC089E190E09EAB8DAB8DA99EA9BB
:100860000197F1F79EAB8DAB8BA99CA901979CAB2F
:100870008BAB8BA99CA9892B69F714C06FA578A9AC
:1008800089A99AA90E948407DC01CB019CAB8BABA0
:100890008BA99CA998AF8FAB8FA998AD0197F1F761
:1008A00098AF8FAB82E390E022E330E0F901208142
:1008B0002460FC01208380E090E0A0E8BFE38D830A
:1008C0009E83AF83B88720E030E04AE753E46D8130
:1008D0007E818F8198850E947A08DC01CB018DA3EF
:1008E0009EA3AFA3B8A720E030E040E85FE36DA18E
:1008F0007EA18FA198A50E94D10688232CF481E0C7
:1009000090E09AA789A73FC020E03FEF4FE757E468
:100910006DA17EA18FA198A50E94750818164CF5AF
:1009200020E030E040E251E46D817E818F81988546
:100930000E947A08DC01CB01BC01CD010E94840732
:10094000DC01CB019AA789A70FC089E190E09CA7A1
:100950008BA78BA59CA50197F1F79CA78BA789A5D1
:100960009AA501979AA789A789A59AA5892B69F7BE
:1009700014C06DA17EA18FA198A50E948407DC01FF
:10098000CB019AA789A789A59AA59EA78DA78DA512
:100990009EA50197F1F79EA78DA788E390E029AD6A
:1009A000FC01208380E090E0A0E8BFE389879A877C
:1009B000AB87BC8720E030E04AE753E469857A855D
:1009C0008B859C850E947A08DC01CB018B8F9C8FE4
:1009D000AD8FBE8F20E030E040E85FE36B8D7C8D13
:1009E0008D8D9E8D0E94D10688232CF481E090E0AD
:1009F00098A38F8F3FC020E03FEF4FE757E46B8D08
:100A00007C8D8D8D9E8D0E94750818164CF520E00A
:100A100030E040E251E469857A858B859C850E94AF
:100A20007A08DC01CB01BC01CD010E948407DC0106
:100A3000CB0198A38F8F0FC089E190E09AA389A37F
:100A400089A19AA10197F1F79AA389A38F8D98A103
:100A5000019798A38F8F8F8D98A1892B69F714C068
:100A60006B8D7C8D8D8D9E8D0E948407DC01CB016A
:100A700098A38F8F8F8D98A19CA38BA38BA19CA1F2
:100A80000197F1F79CA38BA382E390E022E330E08F
:100A9000F90120812B7FFC01208380E090E0A0E819
:100AA000BFE38D879E87AF87B88B20E030E04AE7B1
:100AB00053E46D857E858F8598890E947A08DC01D4
:100AC000CB01898B9A8BAB8BBC8B20E030E040E86C
:100AD0005FE369897A898B899C890E94D106882382
:100AE0002CF481E090E09E8B8D8B3FC020E03FEFA7
:100AF0004FE757E469897A898B899C890E94750838
:100B000018164CF520E030E040E251E46D857E851A
:100B10008F8598890E947A08DC01CB01BC01CD0148
:100B20000E948407DC01CB019E8B8D8B0FC089E175
:100B300090E0988F8F8B8F89988D0197F1F7988F20
:100B40008F8B8D899E8901979E8B8D8B8D899E8938
:100B5000892B69F714C069897A898B899C890E94DD
:100B60008407DC01CB019E8B8D8B8D899E899A8FAA
:100B7000898F898D9A8D0197F1F79A8F898F00005F
:100B8000E9960FB6F894DEBF0FBECDBFDF91CF91CF
:100B90000895CF93DF9300D01F92CDB7DEB79B832C
:100BA0008A8319820EC08981882F90E02A813B8137
:100BB000820F931FFC0180810E94C30389818F5F94
:100BC00089838981882F90E02A813B81820F931F3E
:100BD000FC018081882F90E0892B29F700000F907D
:100BE0000F900F90DF91CF910895CF93DF9300D0B6
:100BF0001F92CDB7DEB78A836B838A81882F90E0FE
:100C00008130910579F0823091051CF4892B39F0FF
:100C100015C08230910551F0039761F00FC08B81B0
:100C200089830CC08B81805C898308C08B81805F45
:100C3000898304C08B81805B8983000089818068FF
:100C40000E94BD0100000F900F900F90DF91CF9197
:100C50000895CF93DF93CDB7DEB762970FB6F894C0
:100C6000DEBF0FBECDBF9A8B898B89899A894AE0F6
:100C700050E09E012F5F3F4FB9010E94E708CE016F
:100C800001960E94C905000062960FB6F894DEBF77
:100C90000FBECDBFDF91CF910895CF93DF9300D0EA
:100CA00000D0CDB7DEB789836A835C834B836A81CA
:100CB00089810E94F5058B819C810E94C9050000F5
:100CC0000F900F900F900F90DF91CF910895CF93D9
:100CD000DF93CDB7DEB781E00E94BD010000DF9158
:100CE000CF910895AF92BF92CF92DF92EF92FF9291
:100CF0000F931F93CF93DF93CDB7DEB78091720030
:100D000090917300CC01A0E0B0E0BC01CD010E9445
:100D1000B307DC01CB012AE037ED43E250E4BC012C
:100D2000CD010E947A08DC01CB0120E030E040E8F0
:100D300054E4BC01CD010E94D606DC01CB0120E0C9
:100D400030E048EC52E4BC01CD010E947A08DC019D
:100D5000CB01BC01CD010E944807A22EB32EC42EA8
:100D6000D52EE62EF72E082F192FA0927400B092E0
:100D70007500C0927600D0927700E0927800F092F1
:100D8000790000937A0010937B000000DF91CF91EF
:100D90001F910F91FF90EF90DF90CF90BF90AF9099
:100DA00008950E94F00708F481E008950E94EA0681
:100DB0000C943B080E94340858F00E942D0840F023
:100DC00029F45F3F29F00C94140851110C946F081A
:100DD0000C941A080E944C0868F39923B1F3552328
:100DE00091F3951B550BBB27AA276217730784073E
:100DF00038F09F5F5F4F220F331F441FAA1FA9F3D4
:100E000035D00E2E3AF0E0E832D091505040E695C1
:100E1000001CCAF72BD0FE2F29D0660F771F881F22
:100E2000BB1F261737074807AB07B0E809F0BB0B15
:100E3000802DBF01FF2793585F4F3AF09E3F510529
:100E400078F00C9414080C946F085F3FE4F3983E1C
:100E5000D4F3869577956795B795F7959F5FC9F712
:100E6000880F911D9695879597F90895E1E0660F93
:100E7000771F881FBB1F621773078407BA0720F00C
:100E8000621B730B840BBA0BEE1F88F7E095089575
:100E9000BEE304D008F490E80895BFE32227332787
:100EA000A9010E94540860F19F5748F1B91740F119
:100EB000BFE3B91B9927B8503AF4660F771F881F14
:100EC000991FB395D2F316C0B8504AF0232F342F90
:100ED000452F562F672F782F8827B850BAF7B85F5D
:100EE00049F0869577956795579547953795279556
:100EF000BA95B9F716F40E941D088894089588944D
:100F000060E070E0CB0108950E94540888F09F577C
:100F100098F0B92F9927B751B0F0E1F0660F771F1D
:100F2000881F991F1AF0BA95C9F714C0B13091F013
:100F30000E946E08B1E008950C946E08672F782F18
:100F40008827B85F39F0B93FCCF3869577956795D8
:100F5000B395D9F73EF490958095709561957F4F44
:100F60008F4F9F4F0895E89409C097FB3EF49095EA
:100F70008095709561957F4F8F4F9F4F9923A9F072
:100F8000F92F96E9BB279395F69587957795679501
:100F9000B795F111F8CFFAF4BB0F11F460FF1BC045
:100FA0006F5F7F4F8F4F9F4F16C0882311F096E9D8
:100FB00011C0772321F09EE8872F762F05C0662386
:100FC00071F096E8862F70E060E02AF09A95660F3F
:100FD000771F881FDAF7880F9695879597F90895F8
:100FE000990F0008550FAA0BE0E8FEEF161617063A
:100FF000E807F907C0F012161306E407F50798F0A2
:10100000621B730B840B950B39F40A2661F0232BBA
:10101000242B252B21F408950A2609F4A140A69536
:101020008FEF811D811D089597F99F6780E870E01B
:1010300060E008959FEF80EC0895909580957095FD
:10104000609550954095309521953F4F4F4F5F4F9C
:101050006F4F7F4F8F4F9F4F089500240A941616AD
:10106000170618060906089500240A941216130696
:10107000140605060895092E0394000C11F4882324
:1010800052F0BB0F40F4BF2B11F460FF04C06F5F40
:101090007F4F8F4F9F4F089557FD9058440F551F16
:1010A00059F05F3F71F04795880F97FB991F61F0EA
:1010B0009F3F79F087950895121613061406551F61
:1010C000F2CF4695F1DF08C0161617061806991FCD
:1010D000F1CF86957105610508940895E894BB27C2
:1010E00066277727CB0197F908950E94F00708F447
:1010F0008FEF08950E948D080C943B080E942D08E4
:1011000038F00E94340820F0952311F00C94140854
:101110000C941A0811240C946F080E944C0870F368
:10112000959FC1F3950F50E0551F629FF001729F8C
:10113000BB27F00DB11D639FAA27F00DB11DAA1F9B
:10114000649F6627B00DA11D661F829F2227B00DE8
:10115000A11D621F739FB00DA11D621F839FA00D73
:10116000611D221F749F3327A00D611D231F849FC3
:10117000600D211D822F762F6A2F11249F5750401A
:101180009AF0F1F088234AF0EE0FFF1FBB1F661F95
:10119000771F881F91505040A9F79E3F510580F05E
:1011A0000C9414080C946F085F3FE4F3983ED4F35A
:1011B000869577956795B795F795E7959F5FC1F702
:1011C000FE2B880F911D9695879597F908954532C6
:1011D000510520F4423010F00C94F208FB0110820B
:1011E000CB010895BB274A3031F4992322F4BDE2A4
:1011F000909581959F4F0C94FE08BB27FB015527C6
:10120000AA27880F991FAA1FA41710F0A41B839563
:101210005051B9F7A05DAA3308F0A95DA1930097DA
:1012200079F7B111B1931192CB010C941709DC013C
:10123000FC01672F71917723E1F7329704C07C910D
:101240006D9370836291AE17BF07C8F30895F89449
:02125000FFCFCE
:1012520074656D7065726174757265203D20000061
:00000001FF
